:020000040800F2
:10000000200D0020390200083D0200083F020008D0
:1000100041020008430200084502000800000000F9
:10002000000000000000000000000000470200087F
:1000300049020008000000004B0200084D020008C1
:100040004F0200084F0200084F0200084F0200084C
:100050004F0200084F0200084F0200084F0200083C
:100060004F0200084F0200084F0200084F0200082C
:100070004F0200084F0200084F0200084F0200081C
:100080004F0200084F0200084F0200084F0200080C
:100090004F0200084F0200084F0200084F020008FC
:1000A0004F0200084F0200084F020008A31C00087E
:1000B000CF130008E71300081D1400084F020008C2
:1000C0004F0200084F0200084F0200084F020008CC
:1000D0004F0200084F02000815090008090F000828
:1000E000B55D00084F0200084F0200084F020008EB
:1000F0004F0200084F0200084F0200084F0200089C
:100100004F0200084F0200082F1400084F02000899
:100110004F0200084F0200084F0200084F0200087B
:100120004F0200084F0200084F0200084F0200086B
:1001300000F002F800F06AF80AA090E8000C82448F
:100140008344AAF10107DA4501D100F05FF8AFF26C
:10015000090EBAE80F0013F0010F18BFFB1A43F0A5
:100160000103184788AF0000A8AF00000A444FF011
:10017000000C10F8013B13F0070408BF10F8014B06
:100180001D1108BF10F8015B641E05D010F8016B4B
:10019000641E01F8016BF9D113F0080F1EBF10F8AF
:1001A000014BAD1C0C1B09D16D1E58BF01F801CBD2
:1001B000FAD505E014F8016B01F8016B6D1EF9D555
:1001C0009142D6D37047000000230024002500266A
:1001D000103A28BF78C1FBD8520728BF30C148BFAA
:1001E0000B607047662909F03682642906F0F480B6
:1001F000002070471FB506F081FC0400002000219C
:1002000008F0FCF8E0601FBD10B510BD06F0BEFDA3
:100210001146FFF7EFFF00F02BF806F0DCFD03B40A
:10022000FFF7F2FF03BC00F085FA000030BF72B6A2
:1002300062B680F30888704708480047FEE7FEE78B
:10024000FEE7FEE7FEE7FEE7FEE7FEE7FEE7FEE786
:1002500003480449044A054B704700003101000877
:1002600020070020200D0020200900202009002068
:10027000092000F006FA482000F0A6F8022000F05D
:10028000EBF9012000F0E8F900F08AFE002141F6C8
:100290001F4001F010FC00F0EEFC3D48806940F08A
:1002A00004003B4988613B48006820F470203949CC
:1002B00008600846006840F4002008603648374966
:1002C0000CC803C908F0E2F8044600224FF080434E
:1002D00008F08CF9324A03C2324833490CC803C9CA
:1002E00008F0D4F8044600224FF0804308F07EF96D
:1002F0002E4A03C200212E482E4AC2E90010294886
:1003000029490CC803C908F013FD04460D462248CC
:1003100022490CC803C908F00BFD064622462B46AD
:1003200008F064F9244A03C24FF4E131482000F098
:100330001AFA4FF41651242000F080FA4FF4E131FC
:10034000242000F066FD00F065FE00F0D3FE00F012
:100350003BFF00F0A1FF01F077F805F046F805F04B
:1003600058F801F0FFFA12E01448006841F28831B1
:10037000884201DD01F050FD012011490870002084
:100380001049087000BF0E4800780028FBD1EBE749
:100390000010024004080140C0000020B800002006
:1003A000D8000020D0000020C8000020E00000207D
:1003B0000000F03FE8000020F000002000010020D5
:1003C00045000020440000204FF0E021096921F0A1
:1003D00004014FF0E0221161C21700EB5272C2F328
:1003E000C702234B1A701946097801EB4102C2EB90
:1003F000C1114FF6FF7202EAC1011E4A1180704717
:1004000001461B4A12784A434FF0E0235A6100220A
:100410009A6101221A6100BF4FF0E022106900F0DA
:1004200001021AB100F48032002AF5D000224FF008
:10043000E0231A619A61704701460E4A12884A43C6
:100440004FF0E0235A6100229A6101221A6100BF35
:100450004FF0E022106900F001021AB100F480327E
:10046000002AF5D000224FF0E0231A619A6170470C
:100470000A0100200C010020A34A0A400243A34BBA
:100480001A6070470146072323EA010212029F4BBC
:100490001B1D18684FF6FF0318409D4B184310436F
:1004A0009A4B1B1D186070472DE9F041074688469E
:1004B00014461D462846FFF7E5FFC5F1040007FA7C
:1004C00000F60F20284100EA0800064306F00F0658
:1004D000E21704EBD2625211920002F1E022D2F84C
:1004E00000212146E31704EBD3635B11A4EB431C0B
:1004F000012303FA0CF31A432046E31704EBD363FA
:100500005B119B0003F1E023C3F800218148005DEB
:1005100040EA06107F490855BDE8F08170B50446F1
:100520000B46CE1701EB9676C6F38700CE1701EB8C
:100530009676B610A1EB8606B606350E764B9B690D
:1005400043F00103744EB3614FEAB63353F82030E1
:100550000F26AE40B343714E46F82030334653F871
:10056000203004FA05F61E436C4B43F820606C4BB8
:100570001B6801268E403343694E336002F001034D
:1005800043B1674B0C331B6801268E403343644EE6
:100590000C36336002F0020343B1614B08331E682E
:1005A00001238B401E435E4B08331E6070BD00B5B7
:1005B000002059490861C860142048610020886102
:1005C000C8610846006840F00100086008464068BD
:1005D000544908405049486008460068524908405C
:1005E0004D4908600846006820F4802008600846ED
:1005F000406820F4FE0048600020886000214FF031
:100600000060FFF739FF00BD10B5404808300068B2
:1006100040F004003D49083108603F48C06940F09F
:1006200080503D49C8614148406840F480703F496E
:1006300048600846006840F004000860084600680A
:1006400040F002000860FFF7F1FD10BD3048001DCA
:100650002E49091D08607047014649062E4A9269D5
:1006600042F001022C4B9A612C4A083A526822F05F
:10067000E0622A4B083B5A601A4652680A435A60A5
:10068000704730B504460025FFF791FF2248006807
:1006900040F480302049086000BF1F480068400CCB
:1006A0000028FAD04FF480601B494860A01EC4B2F5
:1006B0000846406840EA844048600846406840F484
:1006C000803048601A48006840F0320018490860DD
:1006D0001148006840F080700F49086000BF0E4864
:1006E0000068400E0028FAD00B48406840F0020035
:1006F0000949486005E008484068C0F3870505F0EF
:100700000305022DF7D130BD80FFFF1F08ED00E08B
:100710000000FA0500E400E000100240080001407B
:10072000000401400000FFF8FFFFF6FE00700040EB
:100730000020024000BF704700BF8C4A128802F0C0
:100740004002002AF9D0C2B2884B1B1D1A807047A4
:100750008649091D088000BF8449098801F04001CD
:100760000029F9D070472DE9F05F05460E463001AB
:1007700008F0ACFD81467E4905FB01F008F0A6FDBE
:100780008246494608F058FC0746384608F066FDA0
:1007900084B2204608F09AFD8346394608F0DBFE15
:1007A00082464FF0834108F0D9FD814608F056FD9E
:1007B00080464FF6FF7000EA041404EB080084B290
:1007C0006C48806940F004006A4988610846806985
:1007D00040F4804088616848006820F47F60664982
:1007E00008600846006840F40B6008606148C06813
:1007F00040F480405F49C8600846C06820F48040EB
:10080000C8605A4808300480001D008842F20C017C
:10081000084356490C3108800846008840F480702F
:1008200008800846008840F0200008800223252226
:1008300000210846FFF738FEBDE8F09F2DE9F05F84
:1008400005460E46300108F041FD8146484905FB4A
:1008500001F008F03BFD8246494608F0EDFB0746F3
:10086000384608F0FBFC84B2204608F02FFD834692
:10087000394608F070FE82464FF0834108F06EFD65
:10088000814608F0EBFC80464FF6FF7000EA041446
:1008900004EB080084B23748806940F0080035490D
:1008A00088610846C06940F40030C8613248001FC2
:1008B000006820F47F603049091F0860084600681E
:1008C00040F40B6008602B48006940F4003029496F
:1008D00008610846006920F4003008612748048058
:1008E000001D008842F20C0108432449091D0880BC
:1008F0000846008840F4807008800846008840F070
:10090000200008800223262200210846FFF7CCFDA4
:10091000BDE8F09F19480838008800F02000F8B1C1
:1009200017480068E0B91548001F00881549164AA5
:100930001278885414480078401C134908700846FF
:100940000078032810DB002008700E48007801288A
:1009500007D10C484078FE2803D1012008490860DF
:1009600002E000200649086070470000003801409E
:1009700040420F00001002400408014008440040BB
:1009800070000020740000201801002010B50A46F5
:100990001AB10123FE4C236002E00023FC4C2360CB
:1009A000002116E00023FA4C3434236000F0800369
:1009B0001BB10123241D236003E00023F44C3834D1
:1009C00023600123F24C343423604306180E4B1C81
:1009D000D9B20829E6DB0123ED4C236010BD30B508
:1009E00000241CE004F1B001C8B20021FFF7CEFFE3
:1009F00000210846FFF7CAFF00211020FFF7C6FFBD
:100A0000002508E0E34901EBC501085D0121FFF77E
:100A1000BDFF681CC5B2802DF4DB601CC4B2082C7D
:100A2000E0DB30BD00B500218D20FFF7AFFF0021D6
:100A30001420FFF7ABFF0021AF20FFF7A7FF00BD99
:100A400000B500218D20FFF7A1FF00211020FFF746
:100A50009DFF0021AE20FFF799FF00BD30B50024B7
:100A60000CE0002506E00020CA4901EBC50108554D
:100A7000681CC5B2802DF6DB601CC4B2082CF0DB0C
:100A8000FFF7ADFF30BDF0B5144600267F2801DC2E
:100A90003F2900DDF0BD0B46CF1701EB5777FF1064
:100AA000C7F10707FAB2CF1701EB5777FF10A1EB99
:100AB000C707FDB2C5F107070123BB40DEB24CB149
:100AC000B44B03EBC0039B5C3343B24F07EBC0074F
:100AD000BB5408E0AF4B03EBC0039B5CB343AD4F8B
:100AE00007EBC007BB5400BFD4E72DE9F04F8046A9
:100AF0000C4615461E46A346A5F12000C5B20027A8
:100B00003EE00C2E07D105EB4500A34901EB800028
:100B100010F8079004E0A14800EB051010F80790CA
:100B20004FF0000A26E009F0800028B12146404637
:100B3000099AFFF7A8FF09E0099808B9012000E029
:100B40000020024621464046FFF79DFF4FEA4960DC
:100B50004FEA1069601CC4B2A4EB0B00B04205D18F
:100B60005C4608F1010000F0FF0806E00AF1010010
:100B700000F0FF0ABAF1080FD5DB00BF781CC7B23E
:100B8000B742BEDBBDE8F08F10B50246012000E0A1
:100B900050430B1EA1F10104E1B2F9D110BD2DE9C2
:100BA000FF4F81B0074691461E460E9D4FF0000A4A
:100BB000002439E0301B401EC1B20A20FFF7E4FFD9
:100BC000B9FBF0F00A21B0FBF1F201FB1208BAF117
:100BD000000F16D1701EA04213DDB8F1000F0ED128
:100BE0000120AB4605EBDB71491001FB047100905D
:100BF000C8B22B4620220299FFF777FF12E04FF090
:100C0000010A0120AB4605EBDB71491001FB0471C1
:100C10000090C8B208F13001CAB22B460299FFF722
:100C200064FF00BF601CC4B2B442C3DB05B0BDE8C2
:100C3000F08F78B505460E46144618E07A2D03DD90
:100C4000002506F11000C6B23A2E04DD002005464C
:100C50000646FFF703FF0120009022780C2331465F
:100C60002846FFF742FF05F10800C5B2641C207852
:100C70000028E3D178BD10B54948806940F01000E4
:100C8000474988610846806940F00100886145480D
:100C90004068C0F313004349486008464068424931
:100CA0000843404948600846006820F00F0008608B
:100CB0000846006840F0020008603C48006840F4C4
:100CC00080703A4908603648006A20F001003449D3
:100CD00008623748008820F0010035490880334811
:100CE000006820F4807031490860002028493C31B8
:100CF00008606420FFF7A0FB01202E49C1F8BC0169
:100D00000021AE20FFF742FE0021D520FFF73EFE76
:100D100000215020FFF73AFE0021A820FFF736FE01
:100D200000213F20FFF732FE0021D320FFF72EFEE7
:100D300000210846FFF72AFE00214020FFF726FE8B
:100D400000218D20FFF722FE00211420FFF71EFE58
:100D500000212020FFF71AFE00210220FFF716FED7
:100D60000021A120FFF712FE0021C020FFF70EFE98
:100D70000021DA20FFF70AFE00211220FFF706FE0D
:100D800000218120FFF702FE0021EF2014E0000087
:100D900080012242160200204A970008BE9B0008EC
:100DA00000100240001001400000202200700040AE
:100DB000306C004000002242FFF7E8FD0021D920FE
:100DC000FFF7E4FD0021F120FFF7E0FD0021DB202B
:100DD000FFF7DCFD00213020FFF7D8FD0021A42023
:100DE000FFF7D4FD0021A620FFF7D0FD0021AF20A2
:100DF000FFF7CCFDFFF732FE10BD00005E49088012
:100E000000BF5D49091F098801F040010029F8D0A1
:100E100070472DE9F05F05460E46300108F056FA9E
:100E20008146564905FB01F008F050FA82464946D2
:100E300008F002F90746384608F010FA84B2204656
:100E400008F044FA8346394608F085FB82464FF0A5
:100E5000834108F083FA814608F000FA80464FF695
:100E6000FF7000EA041404EB080084B2444880696F
:100E700040F00100424988610846806940F0100056
:100E800088610846C06940F48020C8613D484068D8
:100E900020F47F403B4948600846406840F40B40DE
:100EA00048600846C06840F48060C86036484068C2
:100EB00040F01000344948603148006940F4802017
:100EC0002F4908610846006920F4802008612A48FB
:100ED000001D0480001D008842F20C0108432649D1
:100EE000083108800846008840F480700880084671
:100EF000008840F0200008800223272200210846B5
:100F0000FFF7D2FABDE8F09F1B48001F008800F0F1
:100F1000200080B318490988C8B21C4909781C4AC6
:100F200011701A4908701B49097819BB1A491B4AE4
:100F30001278885419490978491CC9B2174A1170A6
:100F400009290CDD00211170114909780D2906D1FC
:100F50000E4909780A2902D101210E4A11700C4963
:100F600009780D2906D1094909780A2902D10021F9
:100F70000A4A117000BF70470448004040420F0009
:100F80000010024000100140000001401901002043
:100F90001A01002046000020C80100201B0100208B
:100FA0001748806940F008001549886115480068B5
:100FB00020F47000134908600846006840F44010AF
:100FC000086010480830006840F400500D490831AE
:100FD0000860704718B900210B4A11600FE00B49F7
:100FE0000968491C094A1160814208D1064909680B
:100FF000C943074AC2F8B4110021044A116070477E
:1010000000100240040C0140B48121421C01002068
:101010000080214210B5FA48406840F48070F849D9
:101020004860F848C06940F00100F649C8610846C8
:10103000806940F0040088610846806940F008003B
:101040008861F148006820F07040EF490860084668
:10105000006840F080400860EC48006820F4704070
:10106000EA4908600846006840F4804008604FF094
:101070008040808940F001004FF08041888108461F
:10108000808940F04000888101231C2203211846FA
:10109000FFF70AFA00204FF0804108854FF6FF70F5
:1010A00088850846008820F440700880084600883B
:1010B00020F0600008800846008B40F001000883A3
:1010C0000846008B40F4807008830846008C20F0AE
:1010D000020008840846008C20F02000088408469E
:1010E000008940F0030008810846008840F00100B4
:1010F000088010BD10B5C348C06940F00200C14966
:10110000C8610846806940F008008861BE48001F39
:10111000006820F07F40BC49091F0860084600684D
:1011200040F088400860BA48008840F00100B849A3
:1011300008800846008840F04000088001231D22F6
:1011400003211846FFF7B0F90020B1491C3108808F
:101150004FF6FF70091D0880AD480C38008820F458
:101160004070AB490C3908800846008820F06000C8
:101170000880A7480C30008840F00100A4490C31D9
:1011800008800846008840F480700880A048143029
:10119000008820F002009E4914310880084600882B
:1011A00020F0200008809A48001F008840F00300CB
:1011B0009749091F088096480C38008840F00100C4
:1011C00093490C39088010BD10B58E48C06940F0B5
:1011D00004008C49C8610846806940F008008861B5
:1011E0008A48006820F07F40884908600846006807
:1011F00040F0884008608748008840F00100854939
:1012000008800846008840F04000088001231E2224
:1012100003211846FFF748F900207E491C31088059
:101220004FF6FF70091D08807A480C38008820F4BA
:10123000407078490C3908800846008820F060002A
:10124000088074480C30008840F0010071490C316E
:1012500008800846008840F4807008806D4814308B
:10126000008820F002006B4914310880084600888D
:1012700020F0200008806748001F008840F003002D
:101280006449091F088063480C38008840F0010059
:1012900060490C39088010BD10B55A48C06940F04B
:1012A00008005849C8610846806940F00400886118
:1012B0005548001F006820F0FF005349091F0860CF
:1012C0000846006840F044000860C804808940F087
:1012D0000100C90488810846808940F04000888167
:1012E0000123322203211846FFF7DEF800204A4985
:1012F00008804FF6FF70091D08804748283800888D
:1013000020F440704449283908800846008820F0BD
:101310006000088040481038008840F001003E49D5
:10132000103908800846008840F4807008803A48E8
:101330000838008820F0020037490839088008463C
:10134000008820F02000088033482038008840F0D2
:1013500003003149203908802F482838008840F0A0
:1013600001002D492839088010BD0146022906D008
:1013700003290DD0042914D0052924D11AE04FF0F7
:101380008042928C10B200224FF080439A841CE07D
:101390001F4A1832128810B200221D4B18331A80CF
:1013A00013E01C4A1832128810B20022194B18336D
:1013B0001A800AE0184A121F128810B20022164B37
:1013C0001B1F1A8001E0002000BF00BF70474FF0D4
:1013D0008040008A4FF08040008A20F001004FF0EA
:1013E0008041088270470A48001D00880848001D97
:1013F000008820F001000649091D088070470000A0
:10140000000001400010024004080140000C0140AF
:101410000C0400400C080040280C004008480088DC
:101420000748008820F001000549088070470548FA
:1014300000880448008820F00100024908807047B5
:1014400010080040100C0040FB48806940F0080084
:10145000F9498861F948006820F47F40F74908603D
:101460000846006840F44C500860704710B5F348D7
:10147000006820F47040F14908600846006840F4B4
:10148000405008600120EE490860EE48D0F82C0179
:1014900008B9002010BD0120E949091F0860022099
:1014A000FEF7AEFF0020E749C1F8AC01E448803800
:1014B000006808B10020EDE70220FEF7A1FF002040
:1014C000DF49091F08600120E4E710B5DB48006828
:1014D00020F47040D94908600846006840F4405044
:1014E00008600020D649091F0860D649C1F8AC0140
:1014F0000220FEF785FF0120D149091F0860D1496C
:10150000C1F8AC010220FEF77BFF10BD10B500242E
:10151000CA48006820F47040C8490860084600685E
:1015200040F4004008600120C54908600220FEF731
:1015300067FF0120C349C1F8A8010220FEF760FF40
:101540000AE0601CC4B2322C03DDFFF7BEFF0020AE
:1015500010BD0220FEF754FFB9488038006800280B
:10156000EFD1B749091F08600120F1E710B500204D
:10157000B349091F0860B148006820F47040AF49C2
:1015800008600846006840F4405008600020AD49FB
:10159000C1F8AC010220FEF733FF0120A849091F62
:1015A00008600220FEF72CFF0020A649C1F8A80120
:1015B00010BD10B50020A249091F08609F480068AF
:1015C00020F470409D4908600846006840F440508F
:1015D000086001209B49C1F8AC010220FEF710FF12
:1015E00001209749091F08600220FEF709FF00202B
:1015F0009449C1F8A80110BD70B504468F48006831
:1016000020F470408D4908600846006840F440505E
:10161000086000208A49091F0860002517E0E009DA
:10162000874908606006040E0220FEF7E9FE0120EB
:101630008449C1F8A8010220FEF7E2FE002080499B
:10164000091F08600220FEF7DBFE681CC5B2082DEA
:10165000E5DB70BD2DE9F04105460E46174698467C
:10166000FFF704FF10B90120BDE8F0816906080EFC
:10167000FFF7C2FFFFF74AFF18B9FFF726FF012067
:10168000F2E73046FFF7B8FFFFF740FF00240BE01A
:1016900018F80400FFF7B0FFFFF738FF18B9FFF79D
:1016A00014FF0020E0E7641CBC42F1DBFFF70DFFF4
:1016B0000020D9E770B5054600246048006820F492
:1016C00070405E4908600846006840F400400860C9
:1016D000002617E000205A49091F08600220FEF783
:1016E0008FFE01205749C1F8A8016006040E544836
:1016F0008038006808B1601CC4B20220FEF780FE8A
:10170000701CC6B2082EE5DB15B1FFF72FFF01E014
:10171000FFF74FFF204670BD2DE9F04106460F460A
:1017200014461D46FFF7A2FE10B90120BDE8F08166
:101730007106080EFFF760FFFFF7E8FE18B9FFF724
:10174000C4FE0120F2E73846FFF756FFFFF7DEFE42
:10175000FFF78CFE012101EB4601C8B2FFF74CFFF9
:10176000FFF7D4FE0DE0012C04D10020FFF7A2FF0B
:10177000287003E00120FFF79DFF28706D1C601E9C
:10178000C4B2002CEFD1FFF7A0FE0020CEE770B569
:1017900005460E460024FFF769FE2846FFF72CFF9A
:1017A000641CFFF7B3FE3046FFF726FF641CFFF70B
:1017B000ADFEFFF75BFE691CC8B2FFF71DFF641C9E
:1017C000FFF7A4FE0020FFF775FF0446FFF77DFE3C
:1017D000204670BD2DE9F0410746884615461E4655
:1017E0000024FFF743FE3846FFF706FFFFF78EFEA3
:1017F0004046FFF701FFFFF789FEFFF737FE791C30
:10180000C8B2FFF7F9FEFFF781FE00BF0DE0681ECA
:10181000A04204D00120FFF74DFF305503E0002027
:10182000FFF748FF3055601CC4B2AC42EFDBFFF756
:101830004CFE2046BDE8F08100100240040C01403F
:10184000AC812142008021422DE9F04180460D46C5
:1018500016461F460024FFF709FE4046FFF7CCFE60
:10186000FFF754FE2846FFF7C7FEFFF74FFE00BF05
:1018700006E0385DFFF7C0FEFFF748FE601CC4B20B
:10188000B442F6DBFFF721FE0120BDE8F08170B520
:1018900005460E46144631462846FFF778FF20706D
:1018A000012070BD37B504460D4602AB0122294622
:1018B0002046FFF7C9FF3EBD2DE9F843074688469D
:1018C00014461D46089E6A4641463846FFF7DFFF2C
:1018D00028B3601CFF2101FA00F0C4F1080129447B
:1018E000491EFF220A41104300F0FF09C5F108001C
:1018F00006FA00F0C6B2C4F1070006419DF80000E8
:1019000000EA090000909DF80000304300909DF827
:10191000002041463846FFF7C5FFBDE8F8830020A8
:10192000FBE7F8B506460F4614461D466A4639469B
:101930003046FFF7ACFF2DB10120A0409DF800100C
:10194000084305E00120A0409DF8001021EA0000B6
:10195000C0B200909DF8002039463046FFF7A2FF44
:10196000F8BD000010B51248806940F00800104929
:1019700088611048006820F070400E4908600846F1
:10198000006840F0004008600A480830006840F4F1
:10199000004008490831086001220F211046FEF777
:1019A000BDFD0223282201211846FEF77DFD10BD52
:1019B00000100240040C01408248806940F004009D
:1019C000804988610846806940F0080088610846BF
:1019D000806940F0100088610846806940F020006E
:1019E00088617948006820F47020774908600846CB
:1019F000006840F4002008607448006800F0FF2090
:101A0000724908600846006840F0221008606F487C
:101A10000C3000686D490C310860084600680860A9
:101A20000846006808600846006808606848006862
:101A300020F47F00664908600846006840F40810FA
:101A400008600846406820F47020486008464068F6
:101A500040F4003048600846C068C8600846C06866
:101A6000C8600846C068C8605A48006820F47060C2
:101A7000584908600846006840F4007008605548FE
:101A80000C30006853490C3108600020524908604E
:101A90005249C1F89401524908604F492031086009
:101AA00050490860091D08604E49103108604E49D0
:101AB000C1F89401704700B503460A46FFF77CFF62
:101AC0004048806940F400503E498861084680697A
:101AD00040F0100088613E48406820F0FF003C491B
:101AE00048600846406840F0BB004860084600680F
:101AF00020F07F4008600846006840F03B400860E6
:101B00003A480380001F028038481438008840F0AB
:101B100060003649143908800846008840F4C04007
:101B20000880081D008840F06000091D08800846F4
:101B3000008840F4C0400880081F008840F008007A
:101B4000091F08800846008840F400600880081DCE
:101B5000008840F00800091D08800846008840F40D
:101B600000600880081D008840F00100091D088001
:101B70000846008840F0100008800846008840F4BD
:101B8000807008800846008840F48050088000205B
:101B9000164908310880091D0880091D0880091DA3
:101BA0000880081D008840F40040091D08804FF49B
:101BB00000400E492C3908800846008840F001009A
:101BC000088000BD0010024004080140000C0140E4
:101BD0000010014000140140900122420000224206
:101BE0008881224280812142008021422C340140A0
:101BF00010B57F48806940F400607D4988610846DF
:101C0000806940F0040088617A48006820F00F0085
:101C1000784908600846006840F008000860754888
:101C2000083000687349083108604FF6FF70724948
:101C300008804720091F08806F481438008840F04A
:101C400001006D491439088008460088088008465C
:101C50000088088068480C38008867490C3908807B
:101C60000846008840F0010008806348203800885A
:101C700040F002006049203908800846008840F0A2
:101C8000010008805C482C38008840F001005A4967
:101C90002C39088002231B2200211846FEF704FC81
:101CA00010BD55491C3908885449097801F0800154
:101CB00000294ED100F00101D1B15049097801F05D
:101CC0004001A9B14D49097801F03F013F290AD1EE
:101CD0004A49097841F08001484A11704FF6FF7176
:101CE000474A118004E045490978491C434A11706C
:101CF00000F0020169B34149097801F0400199B14E
:101D00003E49097841F080013C4A11703A49083156
:101D100009883B4A118038490C39098821F00201B1
:101D2000354A0C3A118014E00021344A1170344ACB
:101D300011803249097841F04001304A1170002188
:101D40002D4A083A1180111F098841F00201121F23
:101D500011800021284A1C3A11807047244880696C
:101D600040F00400224988612248006820F4704055
:101D7000204908600846006840F440500860002090
:101D800020490860704710B501201E4908601420E2
:101D9000FEF736FB00201C49C1F8AC0110BD2DE94F
:101DA000F0474FF0000A1548007800F08000E8B1D5
:101DB0001248007800F03F0A4FEA0A4A10480088AB
:101DC0008244504606F0B0FD064600220F4B06F056
:101DD000BFFD044600220E4B06F008FC804606F0CC
:101DE00023FB0C490860002004490870BDE8F08717
:101DF00000100240040801402C2C0140200100206A
:101E000022010020AC012142000021420040654037
:101E10000088C340780000200EB5FEA200210846CD
:101E2000FEF707FF0021FD48006807F063FA54D26F
:101E300001200C232D22002100903820FEF755FEB2
:101E4000F648006880F00040019007F007FA029021
:101E50000C200423009000214020029AFEF79FFEF0
:101E600001200C232E22002100906020FEF73DFE71
:101E7000EA48006880F00040E949009007F06EFAF7
:101E8000019007F0EBF90A21B0FBF1F201FB12001F
:101E90003030029001200C23009000216820029A2B
:101EA000FEF723FEDD48006880F00040DD49009029
:101EB00007F054FA019007F0D1F90A21B0FBF1F2D2
:101EC00001FB12003030029001200C230090002111
:101ED0007020029AFEF709FE4AE001200C232B2213
:101EE000002100903820FEF700FECC48006807F083
:101EF000B5F902900C200423009000214020029AA2
:101F0000FEF74DFE01200C232E22002100906020C0
:101F1000FEF7EBFDC249C148006807F01FFA0190C7
:101F200007F09CF90A21B0FBF1F201FB12003030FE
:101F3000029001200C23009000216820029AFEF7F5
:101F4000D4FDB849B548006807F008FA019007F0D9
:101F500085F90A21B0FBF1F201FB1200303002904A
:101F600001200C23009000217020029AFEF7BDFD95
:101F7000ADA20C210020FEF75CFE0021AC480068F9
:101F800007F0B8F954D201200C232D2219460090F5
:101F90003820FEF7AAFDA648006880F000400190B6
:101FA00007F05CF902900C200423009001464020C9
:101FB000029AFEF7F4FD01200C232E221946009010
:101FC0006020FEF792FD9A48006880F00040944936
:101FD000009007F0C3F9019007F040F90A21B0FB27
:101FE000F1F201FB12003030029001200C2300902E
:101FF00019466820029AFEF778FD8D48006880F047
:1020000000408849009007F0A9F9019007F026F9EF
:102010000A21B0FBF1F201FB1200303002900120E6
:102020000C23009019467020029AFEF75EFD4AE0EC
:1020300001200C232B22194600903820FEF755FD75
:102040007B48006807F00AF902900C2004230090F6
:1020500001464020029AFEF7A2FD01200C232E2209
:10206000194600906020FEF740FD6D4970480068F9
:1020700007F074F9019007F0F1F80A21B0FBF1F2D2
:1020800001FB12003030029001200C230090194611
:102090006820029AFEF729FD62496548006807F04A
:1020A0005DF9019007F0DAF80A21B0FBF1F201FBCB
:1020B00012003030029001200C230090194670204D
:1020C000029AFEF712FD5BA218210020FEF7B1FD77
:1020D00000215A48006807F00DF954D201200C2362
:1020E0002D22182100903820FEF7FFFC534800688D
:1020F00080F00040019007F0B1F802900C2004231A
:10210000009018214020029AFEF749FD01200C237F
:102110002E22182100906020FEF7E7FC4748006857
:1021200080F000403E49009007F018F9019007F058
:1021300095F80A21B0FBF1F201FB12003030029059
:1021400001200C23009018216820029AFEF7CDFC94
:102150003A48006880F000403249009007F0FEF8ED
:10216000019007F07BF80A21B0FBF1F201FB1200AD
:102170003030029001200C23009018217020029A28
:10218000FEF7B3FC61E001200C232B221821009004
:102190003820FEF7AAFC2948006807F05FF8029093
:1021A0000C200423009018214020029AFEF7F7FC2F
:1021B00001200C232E22182100906020FEF795FCB0
:1021C00017491E48006807F0C9F8019007F046F863
:1021D0000A21B0FBF1F201FB120030300290012025
:1021E0000C23009018216820029AFEF77EFC0D490E
:1021F0001248006807F0B2F8019007F02FF80A21A2
:10220000B0FBF1F201FB12003030029001200C23F0
:10221000009015E0504F535F583A20008000002096
:10222000000020410000C842504F535F593A20003F
:102230008400002056656C5F4C3A20008C00002022
:1022400018217020029AFEF750FC7BA22421002066
:10225000FEF7EFFC00217A48006807F04BF854D2F3
:1022600001200C232D22242100903820FEF73DFC74
:102270007348006880F00040019006F0EFFF029084
:102280000C200423009024214020029AFEF787FCB2
:1022900001200C232E22242100906020FEF725FC33
:1022A0006748006880F000406649009007F056F8E3
:1022B000019006F0D3FF0A21B0FBF1F201FB1200FE
:1022C0003030029001200C23009024216820029AD3
:1022D000FEF70BFC5A48006880F000405A49009015
:1022E00007F03CF8019006F0B9FF0A21B0FBF1F2CB
:1022F00001FB12003030029001200C2300902421B9
:102300007020029AFEF7F1FB4AE001200C232B22F9
:10231000242100903820FEF7E8FB4948006806F0C9
:102320009DFF02900C200423009024214020029A5B
:10233000FEF735FC01200C232E2224210090602082
:10234000FEF7D3FB3F493E48006807F007F80190CD
:1023500006F084FF0A21B0FBF1F201FB12003030DD
:10236000029001200C23009024216820029AFEF79D
:10237000BCFB35493248006806F0F0FF019006F0DA
:102380006DFF0A21B0FBF1F201FB12003030029028
:1023900001200C23009024217020029AFEF7A5FB57
:1023A0002AA230210020FEF744FC2A48006806F0EB
:1023B00055FF02900C200423009030214020029A07
:1023C000FEF7EDFB01200C232E223021009060202F
:1023D000FEF78BFB1B491F48006806F0BFFF01900A
:1023E00006F03CFF0A21B0FBF1F201FB1200303095
:1023F000029001200C23009030216820029AFEF701
:1024000074FB11491348006806F0A8FF019006F01C
:1024100025FF0A21B0FBF1F201FB120030300290DF
:1024200001200C23009030217020029AFEF75DFB02
:10243000FEF7D5FA0EBD000056656C5F413A2000EC
:1024400090000020000020410000C8425F59415721
:102450003A2000007C00002038B50446FB4890F884
:102460002400C0B114B10220009001E000200090CF
:10247000F64A1268D17BF54A526810786B46012201
:10248000FFF7E8F810B14FF0FF3038BD9DF80010AD
:10249000EE48417423E0ED48807A10B94FF0FF30E8
:1024A000F3E724B1E948407C08B10020EDE714B11E
:1024B0000120009001E000200090E44A1268D17BE6
:1024C000E24A526810786B460122FFF7C3F810B158
:1024D0004FF0FF30D9E79DF80010DC484174002030
:1024E000D3E738B5002419E0D8480068C07AA04284
:1024F00004D0D6480068407DA04200D10CE0D3490A
:10250000496808786B4601222146FFF705F910B1AA
:102510004FF0FF3038BD00BF601CC4B2CB484068EC
:102520000079A042E0DC0020F4E770B504460D46D7
:10253000C6480068C07AA04204D0C4480068407D04
:10254000A04202D14FF0FF3070BDC0484068007912
:10255000A04202DC4FF0FF30F6E7BC49496808783A
:102560002B4601222146FFF7D7F8EDE738B50446A0
:10257000B64890F82300A04201D1002038BD14B124
:102580003020009001E000200090B048807C20B115
:102590009DF8000040F002000090AC4890F8220046
:1025A00020B19DF8000040F080000090A74A12681A
:1025B000117DA64A526810786B460122FFF74AF84F
:1025C00010B14FF0FF30D9E7A04880F82340002039
:1025D000D4E738B5044604F0700010B10120009033
:1025E00005E014B10020009001E040200090974ADF
:1025F0001268917C954A526810786B460122FFF769
:1026000029F820B1002191488172481E38BD9DF8FB
:10261000000020F040018D4801730020009004F07C
:10262000400020B99DF8000040F00400009004F044
:10263000200020B99DF8000040F00200009004F056
:10264000100020B99DF8000040F00100009004F057
:10265000080020B99DF8000040F0380000907B4A47
:102660001268D17C794A526810786B460122FEF7D5
:10267000F1FF20B1002175488172481EC6E724B1E0
:10268000082C02D00020FFF771FF704884720021EF
:1026900001753220FDF7D0FE0020B7E738B50446BB
:1026A0006A48807CA04201D1002038BD002C46D071
:1026B000664A12681179654A526810786B460122A1
:1026C000FFF72AF810B14FF0FF30EEE79DF8000059
:1026D00020F0200000905D4A126811795B4A526830
:1026E00010786B460122FEF7B5FF10B14FF0FF30B6
:1026F000DBE70320FDF7A0FE02200090534890F88E
:10270000220020B19DF8000040F0800000904F486A
:1027100090F8230020B19DF8000040F030000090B8
:102720004A4A1268117D494A526810786B46012264
:10273000FEF790FF002851D04FF0FF30B5E7434A35
:1027400012681179414A526810786B460122FEF7EF
:10275000E3FF10B14FF0FF30A7E73C48807A00F06C
:10276000010028B19DF8000040F02000009004E036
:102770009DF8000020F020000090344A1268117982
:10278000324A526810786B460122FEF763FF10B19F
:102790004FF0FF3089E70320FDF74EFE2B4890F8FD
:1027A000220010B18020009001E000200090274816
:1027B00090F8230020B19DF8000040F03000009018
:1027C000224A1268117D214A526810786B46012214
:1027D000FEF740FF10B14FF0FF3066E71B488474EE
:1027E000002062E708B51948807A10B94FF0FF3031
:1027F00008BD00200090154A1268D17B134A526828
:1028000010786B460122FEF725FF10B14FF0FF3024
:10281000EEE70E4A126851790C4A526810786B46FE
:102820000122FEF717FF10B14FF0FF30E0E7074A33
:1028300012681179054A526810786B460122FEF73A
:1028400009FF28B14FF0FF30D2E70000240100203B
:10285000F74890F82400002850D00C200090F44A4B
:1028600012681179F24A526810786B460122FEF71D
:10287000F1FE10B14FF0FF30BAE7C0200090EC48F5
:10288000807A00F0010020B19DF8000040F02000A7
:102890000090E74A12681179E54A526810786B4651
:1028A0000122FEF7D7FE10B14FF0FF30A0E7E0485D
:1028B000407C10B10220009001E000200090DC4A32
:1028C0001268D17BDA4A526810786B460122FEF713
:1028D000C1FE10B14FF0FF308AE700200090D44ACB
:1028E00012685179D24A526810786B460122FEF77D
:1028F000B1FE002852D04FF0FF3079E7042000905D
:10290000CB4A12681179CA4A526810786B46012284
:10291000FEF7A0FE10B14FF0FF3069E7C448807C9D
:1029200020B9C348807A00F0010010B9402000901F
:1029300001E060200090BE4A12681179BC4A5268DA
:1029400010786B460122FEF785FE10B14FF0FF3084
:102950004EE7B748407C10B10120009001E0002014
:102960000090B34A1268D17BB14A526810786B4626
:102970000122FEF76FFE10B14FF0FF3038E7AC4A8E
:1029800012685179AA4A52681078A94B1033012273
:10299000FEF760FE10B14FF0FF3029E7002027E777
:1029A00070B50446002624F00104A14890F82400E4
:1029B00008B1002070BD9E48807A10B94FF0FF30FA
:1029C000F8E79B48057C807A2040994908740846BE
:1029D000007CA04202D04FF0FF3600E0002614B980
:1029E0009348007D18B10120FFF736FD02E000207A
:1029F000FFF732FD3CB1FFF7F5FE20B18C480574BE
:102A00004FF0FF30D6E73046D4E738B50446884863
:102A1000807A10B94FF0FF3038BDBC2C02DB0120AA
:102A2000009015E0622C02DB0220009010E02A2CBE
:102A300002DB032000900BE0142C02DB042000904A
:102A400006E00A2C02DB0520009001E00620009041
:102A50007748C07A9DF80010884201D10020DBE75A
:102A6000734A12689178724A526810786B46012254
:102A7000FEF7F0FD10B14FF0FF30CDE79DF80010EC
:102A80006B48C1720020C7E738B50446282C02DD28
:102A90004FF0FF3038BDDCB90020FFF767FD0020A4
:102AA0008DF8000007208DF80100614A1268917CC2
:102AB0005F4A526810786B460222FEF7CBFD10B1D8
:102AC0004FF0FF30E6E70021594801750020E1E7AB
:102AD0000120FFF74BFD20208DF80000012C06D1CE
:102AE00000208DF801000520FFF78FFF17E0052C6F
:102AF00006DC01208DF801000520FFF786FF0EE0BF
:102B0000142C06DC02208DF801000A20FFF77DFF5F
:102B100005E003208DF801001420FFF776FF9DF8F3
:102B20000100072101EB8010C0B28DF80100404A7E
:102B30001268917C3E4A526810786B460222FEF77A
:102B400089FD10B14FF0FF30A4E7082138488172A9
:102B500000210173012101750020FFF721FF0020F2
:102B600098E738B504463248807A10B94FF0FF3004
:102B700038BD2F4890F8240010B14FF0FF30F7E730
:102B80002B48007D50B134B1282C04DCE0B2FFF7B3
:102B90007BFF0020ECE70020FFF776FF042C01DA32
:102BA000042404E0B4F57A7F01DD4FF47A744FF425
:102BB0007A7090FBF4F0401EC0B200901C4A12687C
:102BC00051781B4A526810786B460122FEF742FD8D
:102BD00010B14FF0FF30CBE79DF80000401C4FF4E0
:102BE0007A7191FBF0F081B21148C1810146C98927
:102BF0004810FFF70AFF0020BAE738B504460C4832
:102C0000807A10B94FF0FF3038BD022C06D0042C6A
:102C100007D0082C08D0102C0FD10BE0002000901A
:102C20000EE0082000900BE01020009008E000006B
:102C3000240100201820009002E04FF0FF30E3E76D
:102C400000BFF948407A9DF80010B0EBE10F01D1C8
:102C50000020D9E7F44A1268D179F34A5268107813
:102C60006B460122FEF7F6FC10B14FF0FF30CBE7C8
:102C70009DF80000C110EC4841720020C4E738B54F
:102C80000446E948807A10B94FF0FF3038BDFA2C7D
:102C900009D0B4F5FA7F09D0B4F57A7F09D0B4F53C
:102CA000FA6F0CD108E0002000900BE008200090A3
:102CB00008E01020009005E01820009002E04FF09E
:102CC000FF30E3E700BFD848007A9DF80010B0EB72
:102CD000E10F01D10020D9E7D34A12689179D24A95
:102CE000526810786B460122FEF7B4FC10B14FF029
:102CF000FF30CBE79DF80000C010CB4908720020E0
:102D0000C4E71CB580208DF80000C74A1268917C8A
:102D1000C54A526810786B460122FEF79BFC10B141
:102D20004FF0FF301CBD6420FDF786FB00208DF8BE
:102D30000000BD4A1268917CBB4A526810786B460D
:102D40000122FEF787FC10B14FF0FF30EAE7B64AE8
:102D50001268917DB44A526810786B460622FEF7DD
:102D6000DBFC10B14FF0FF30DCE79DF80500C00739
:102D7000400F9DF8031001F0010140EA41009DF869
:102D8000011001F0010140EA010494B1012C03D1CA
:102D90000121A548C17431E0022C03D10021A248D1
:102DA000C1742BE02146A1A003F0D6FA4FF0FF300A
:102DB000B8E79D4A1268D1789B4A526810786B46F2
:102DC0000122FEF7A9FC10B14FF0FF30AAE79DF8F1
:102DD000000000F00F042CB99E4803F0BDFA4FF03C
:102DE000FF309FE7042C06D19BA003F0B5FA012128
:102DF0008D48C17402E000218B48C174FF218A48CC
:102E00008172FF2088490872FF2187484172C17290
:102E10004FF6FF71C181FF2101748174012101739B
:102E200080F82210002180F82310417501751630BA
:102E3000016041608160163880F8241080F8251008
:102E4000C1844FF4FA60FFF71AFF10B14FF0FF3062
:102E500068E70220FFF7D1FE10B14FF0FF3061E7C5
:102E60002A20FFF7D2FD10B14FF0FF305AE7322091
:102E7000FFF777FE10B14FF0FF3053E70020FFF768
:102E80008FFD10B14FF0FF304CE70020FFF706FC3C
:102E900010B14FF0FF3045E70020FFF79AFB00200C
:102EA00040E770477CB504460D465F48807A00F0E5
:102EB000700010B94FF0FF307CBD5B4A1268117B87
:102EC000594A526810786B460622FEF725FC10B16D
:102ED0004FF0FF30F0E79DF801009DF8001040EA48
:102EE000012000B220809DF803009DF8021040EA06
:102EF000012000B260809DF805009DF8041040EAB2
:102F0000012000B2A08015B12846FFF7CAFF0020BB
:102F1000D2E77CB504460D464348807A00F00800AD
:102F200010B94FF0FF307CBD3F4A1268517B3E4ADA
:102F3000526810786B460622FEF7EEFB10B14FF098
:102F4000FF30F0E79DF801009DF8001040EA0120F5
:102F500000B220809DF803009DF8021040EA012095
:102F600000B260809DF805009DF8041040EA012041
:102F700000B2A08015B12846FFF793FF0020D2E7EA
:102F80002DE9FE4F05460C462748807A18B94FF0C8
:102F9000FF30BDE8FE8F244A1268917B224A5268B6
:102FA000107802AB0222FEF7B7FB10B14FF0FF30F2
:102FB000EFE79DF809009DF8081040EA012006B2ED
:102FC00014B12046FFF76DFF17494968C88806F01D
:102FD0007DF9154901904968B1F9080006F05EF9DC
:102FE0008346304606F05AF95946009006F0BEFA7C
:102FF0008246019906F020F881461F4905F0AEFF90
:1030000080464FF08F4106F0A9F9074606F00AF90D
:1030100028600020BDE710B588B004461CB94FF009
:10302000FF3008B010BD29E024010020556E7375F3
:1030300070706F7274656420736F66747761726507
:103040002070726F64756374207265762025642E1B
:103050000A0000009CB0000848616C662073656E31
:103060007369746976697479207061727420666F0F
:10307000756E642E0D0A000000000C42206830B905
:10308000606820B9A06810B9002008B010BDFA49E6
:103090004968087806AB03221146FEF73DFB10B1E4
:1030A0004FF0FF30F1E79DF81800082101EB2010E8
:1030B00000F00F00ADF800009DF8190001EB2010A2
:1030C00000F00F00ADF802009DF81A0001EB20108F
:1030D00000F00F00ADF8040020684100BDF90000C9
:1030E000403091FBF0F000B2ADF810006068410094
:1030F000BDF90200403091FBF0F000B2ADF81200D3
:10310000A0684100BDF90400403091FBF0F000B22E
:10311000ADF81400D8494968087806AB0622114674
:10312000FEF7FAFA10B14FF0FF30AEE79DF8190044
:103130009DF8181040EA012000B2ADF808009DF893
:103140001B009DF81A1040EA012000B2ADF80A00F9
:103150009DF81D009DF81C1040EA012000B2ADF85A
:103160000C00BDF81000BDF80810084400B2ADF81E
:103170001000BDF81200BDF80A10084400B2ADF806
:103180001200BDF81400BDF80C10084400B2ADF8F0
:103190001400BDF81000000A8DF81800BDF81000EA
:1031A000C0B28DF81900BDF81200000A8DF81A009F
:1031B000BDF81200C0B28DF81B00BDF81400000A63
:1031C0008DF81C00BDF81400C0B28DF81D00AA498E
:1031D0004968087806AB06221146FEF73BFA10B1A3
:1031E0004FF0FF3051E700204FE70146A248007A38
:1031F00030B1012807D0022809D003280FD10AE0F6
:10320000FA2008800EE04FF4FA7008800AE04FF4CC
:103210007A70088006E04FF4FA60088002E000202F
:10322000088000BF00BF0020704701469248407AE6
:1032300030B1012807D0022808D003280CD108E0BB
:10324000022008700BE00420087008E008200870D5
:1032500005E01020087002E04FF0FF30704700BF1B
:103260008548C07C18B108784006000E0870002020
:10327000F4E701468048C07A082817D2DFE800F05A
:103280001704070A0D101318BC20088013E06220F1
:10329000088010E02A2008800DE0142008800AE051
:1032A0000A20088007E00520088004E000BF00BF76
:1032B0000020088000BF00BF0020704701466E4814
:1032C00090F8240010B14FF0FF3070476A48C08971
:1032D00008800020F9E7014600200880401E704762
:1032E00001464FF0FF30704701466348007A30B125
:1032F000012807D0022808D003280CD108E05F4835
:1033000008600BE05E48086008E05E48086005E081
:103310005D48086002E04FF0FF30704700BF0020BA
:10332000FBE701465448407A30B1012808D0022812
:103330000AD0032810D10BE04FF4804008800EE043
:1033400041F69C7008800AE04FF48050088006E047
:103350004FF40060088002E04FF0FF30704700BF7C
:103360004548C07C10B10888401008800020F5E76F
:1033700001464148007C08700020704701463E48E5
:10338000807A10B10120087001E000200870002050
:10339000704738B504463848807A10B94FF0FF308E
:1033A00038BD354A1268117C334A526810786B4632
:1033B0000222FEF7B1F910B14FF0FF30F0E79DF8AF
:1033C00001009DF8001040EA012000B2208000209A
:1033D000E6E72DE9FE4F0746884692461D46DDF892
:1033E00030B000260024244890F8240010B1601E5C
:1033F000BDE8FE8F002028701F48807A10B94FF07A
:10340000FF30F5E71C48007C10B94FF0FF30EFE7C4
:103410001948007C00F0400008B1B01CC6B2164844
:10342000007C00F0200008B1B01CC6B21248007C3D
:1034300000F0100008B1B01CC6B20F48007C00F0CC
:10344000080008B1B01DC6B20B4A1268917A0A4A48
:10345000526810786B460222FEF75EF910B14FF009
:10346000FF30C5E79DF801009DF8001040EA0129F2
:10347000B1450BDA0020BBE7240100200000034324
:10348000000083423333034233338341FC484068B6
:103490004088B9EB600F17DDF94A1268517CF84A91
:1034A000526810786B460122FEF736F910B14FF0E2
:1034B000FF309DE79DF8000000F0100020B1FFF7FD
:1034C00091F96FF0010093E75046FFF7EAFCEC4AF0
:1034D0001268D17AEA4A526810786B463246FEF793
:1034E0001BF910B14FF0FF3082E799FBF6F0401E58
:1034F0008BF8000000202870B4422AD0E048007CFD
:1035000000F0080028B3601C1DF800001DF804102E
:1035100040EA012000B2A8F80000E01C1DF80010ED
:10352000A01C1DF8000041EA002000B2A8F802002B
:10353000601D1DF80010201D1DF8000041EA00204C
:1035400000B2A8F80400287840F008002870A01DF8
:1035500084B2B44213D0CA48007C00F0400070B17D
:10356000601C1DF800001DF8041040EA012000B2A4
:103570003880287840F040002870A01C84B2B44203
:1035800013D0BF48007C00F0200070B1601C1DF813
:1035900000001DF8041040EA012000B2788028786D
:1035A00040F020002870A01C84B2B44213D0B4486C
:1035B000007C00F0100070B1601C1DF800001DF8C8
:1035C000041040EA012000B2B880287840F01000D2
:1035D0002870A01C84B200200AE7F8B504460F4604
:1035E0001646A74890F8240010B94FF0FF30F8BDF8
:1035F000A348807A10B94FF0FF30F8E7A04A12686C
:10360000917A9F4A526810786B460222FEF784F83E
:1036100010B14FF0FF30EAE79DF801009DF800106F
:1036200040EA0125A54203DA00203070401EDEE7A3
:10363000934840684088B5EB600F17DD904A1268E8
:10364000517C8F4A526810786B460122FEF764F86D
:1036500010B14FF0FF30CAE79DF8000000F01000F5
:1036600020B1FFF7BFF86FF00100C0E7E2B2844B72
:103670001B68D97A824B5B6818783B46FEF74CF89A
:1036800010B14FF0FF30B2E795FBF4F0401E307000
:103690000020ACE701467A4880F8221000207047ED
:1036A0007CB5054676494968087801AB04220D21AE
:1036B000FEF732F808B107207CBD9DF80700C0F383
:1036C00001109DF8041001F0E00140EAE1008DF8DE
:1036D00000009DF80700C0F381009DF8051001F07F
:1036E000E00140EAE1008DF801009DF8070000F0DC
:1036F00003009DF8061001F0E00140EAE1008DF8BA
:10370000020000241CE01DF8040018B9002045F850
:10371000240013E05B4845F8240006E055F8240037
:10372000594905F01BFE45F824001DF80400401E11
:10373000C0B20DF804000028F0D100BF601CC4B274
:10374000032CE0DB0020B7E72DE9FE4F06460F46CD
:1037500000256846FFF7A4FF002442E056F8240045
:1037600057F82410A0EB010ABAF1000F01DB514613
:1037700001E0CAF10001084605F090FD83464FF0D4
:103780008F4105F059FC80465DF82400002105F0CA
:1037900015FD16D05DF82410404605F04DFC82461C
:1037A0004FF07E5105F0E2FE814629F0004A37488D
:1037B000416A504605F09EFE12D20120A04005430A
:1037C0000EE03248C169404605F094FD05D32F480C
:1037D000016A404605F08EFE02D20120A04005435A
:1037E000641C032CBADB2846BDE8FE8F2DE9FC5F84
:1037F00006460F46002522494968087801AB032296
:103800000D21FDF789FF10B10720BDE8FC9F9DF851
:10381000040000F01F008DF804009DF8050000F082
:103820001F008DF805009DF8060000F01F008DF8C0
:103830000600002462E056F8240057F82410A0EB9C
:10384000010BBBF1000F01DB594601E0CBF1000198
:10385000084605F023FD4FF08F41009005F0ECFB8A
:10386000814601A8005DC0B30849086805F02EFD37
:1038700083465946064805F0DFFB80460FE000000E
:10388000240100207B14AE3E1D5A843FD8A10008BD
:1038900000B04C45FE49404605F060FD804601A859
:1038A000005D401EC0B201A908550028F2D1414672
:1038B000484605F0C1FB83464FF07E5105F056FEA9
:1038C00082462AF0004BF3488169584605F012FE03
:1038D00013D20120A04005430FE0FFE7ED48016946
:1038E000484605F007FD05D3EA484169484605F01A
:1038F00001FE02D20120A0400543641C032C9ADB88
:10390000284682E72DE9F04F87B005460C469146E0
:1039100001208DF8100000208DF81100DE4A126899
:10392000917CDD4A5268107804AB0222FDF792FECA
:1039300020B14FF0FF3007B0BDE8F08FC820FCF792
:103940007BFD00208DF81000D34A1268D17BD24A4B
:103950005268107804AB0122FDF77CFE10B14FF0E5
:10396000FF30E8E7CC4A12685179CB4A52681078A8
:1039700004AB0122FDF76EFE10B14FF0FF30DAE725
:10398000C54A1268917CC44A5268107804AB01227F
:10399000FDF760FE10B14FF0FF30CCE7BE4A126871
:1039A000D17DBD4A5268107804AB0122FDF752FE6A
:1039B00010B14FF0FF30BEE7B74A12681179B64A2E
:1039C0005268107804AB0122FDF744FE10B14FF0AD
:1039D000FF30B0E70C208DF81000AF4A1268117963
:1039E000AD4A5268107804AB0122FDF733FE10B1E6
:1039F0004FF0FF309FE70F20FCF71EFDA648806ABE
:103A0000407A8DF81000A44A12689178A24A526850
:103A1000107804AB0122FDF71DFE10B14FF0FF300E
:103A200089E79D48806A007A8DF810009A4A1268EA
:103A30005178994A5268107804AB0122FDF70AFECA
:103A400010B14FF0FF3076E7B9F1000F07D0924880
:103A5000806A807A40F0E0008DF8100004E08E4823
:103A6000806A807A8DF810008B4A126891798A4AB0
:103A70005268107804AB0122FDF7ECFD10B14FF055
:103A8000FF3058E7B9F1000F07D08348806AC07A49
:103A900040F0E0008DF8100003E07E48C07A8DF819
:103AA00010007D4A1268D1797B4A5268107804ABC5
:103AB0000122FDF7CFFD10B14FF0FF303BE7B9F128
:103AC000000F02D0C820FCF7B7FC40208DF8100092
:103AD000714A12681179704A5268107804AB012259
:103AE000FDF7B8FD10B14FF0FF3024E778208DF8D6
:103AF0001000694A12685179674A5268107804AB1D
:103B00000122FDF7A7FD10B14FF0FF3013E7614927
:103B10008889FCF791FC00208DF810005E4A12683D
:103B200051795D4A5268107804AB0122FDF792FD8D
:103B300010B14FF0FF30FEE6574A1268917A564AAC
:103B40005268107804AB0222FDF7E6FD10B14FF089
:103B5000FF30F0E69DF811009DF8101040EA012BAF
:103B60000C209BFBF0F0C6B20020A86068602860C3
:103B7000A06060602060824665E0474A1268D17AA2
:103B8000454A5268107804AB0C22FDF7C5FD10B110
:103B90004FF0FF30CFE69DF811009DF8101040EA7D
:103BA000012000B2ADF808009DF813009DF8121036
:103BB00040EA012000B2ADF80A009DF815009DF81A
:103BC000141040EA012000B2ADF80C00BDF9081055
:103BD000206808442060BDF90A10606808446060ED
:103BE000BDF90C10A0680844A0609DF817009DF86E
:103BF000161040EA012000B2ADF800009DF819004F
:103C00009DF8181040EA012000B2ADF802009DF8BE
:103C10001B009DF81A1040EA012000B2ADF8040024
:103C2000BDF90010286808442860BDF902106868D2
:103C300008446860BDF90410A8680844A8600AF147
:103C4000010000F0FF0AB24597DB1248D0F800C02F
:103C50002868C117090441EA10410704624600239D
:103C6000384602F054FB32460023CDE9020102F04F
:103C70004EFB28600748D0F800C06868C1170904E7
:103C800041EA1041070462460023384606E000007E
:103C900054E3853FD8A100082401002002F037FB3F
:103CA00032460023CDE9020102F031FB6860FE4894
:103CB000D0F800C0A868C117090441EA1041070400
:103CC00062460023384602F022FB32460023CDE94B
:103CD000020102F01CFBA860F348D0F804C0216880
:103CE000C817000440EA11480F0462460023384612
:103CF000414602F00CFB32460023CDE9020102F0FE
:103D000006FB2060E848D0F804C06068C1170904C9
:103D100041EA1041070462460023384602F0F7FAF0
:103D200032460023CDE9020102F0F1FA6060DE487C
:103D3000D0F804C0A068C117090441EA1041070483
:103D400062460023384602F0E2FA32460023CDE90B
:103D5000020102F0DCFAA060A068002804DDA0687F
:103D6000A0F58030A06003E0A06800F58030A0607E
:103D70000020E0E538B50446CC4890F82400A04285
:103D800001D1002038BD24B3C84890F8250010B9EF
:103D90004FF0FF30F6E70020FEF75EFB0020FEF755
:103DA0007DFCC249C88CFEF7DCFE00200090BF49B4
:103DB000496808786B4601222321FDF74BFC01215D
:103DC000BA4880F824100120FEF746FBFEF70AFDF2
:103DD00013E00020FEF740FBB448007C0090B3499C
:103DE000496808786B4601222321FDF733FC002146
:103DF000AE4880F82410FEF7F5FC0020C2E72DE95C
:103E0000F04F8DB083460F4602200C90A74890F8E3
:103E1000240020B10020FFF7ADFF012600E00026BE
:103E200003A8FFF7E2F905A8FFF7FFF901A8FFF7DC
:103E300020FA02A8FFF742FA9C4890F80AA004A8CA
:103E4000FFF796FA002407E0002239465846FFF7AC
:103E500059FD00B902E0641C022CF5DB00BF022C06
:103E600001D1002528E0002407E0012206A909A8C5
:103E7000FFF748FD00B902E0641C022CF5DB00BF2F
:103E8000022C01D1002517E006A93846FFF75CFC9B
:103E900000F0FF0809A95846FFF7A8FC00F0FF0949
:103EA0000025B9F1000F01D145F00105B8F1000F6F
:103EB00001D145F0020500BFFF207C490872FF21B7
:103EC0007A484172C1724FF6FF71C181FF21817240
:103ED000017401210173BDF80C00FEF7D0FE9DF8BE
:103EE0001400FEF78AFEBDF80400FEF78EFDBDF853
:103EF0000800FEF736FE5046FEF76BFB9DF81000FB
:103F0000FEF74EFD16B10120FFF734FF28460DB035
:103F1000BDE8F08FF8B504460D46164616B94FF0C9
:103F2000FF30F8BD6148807A10B94FF0FF30F8E7F4
:103F300020128DF80000E0B28DF801009DF801001C
:103F400028445A4949684989884202DD4FF0FF30C8
:103F5000E7E7564A1268117E544A526810786B4659
:103F60000222FDF777FB10B14FF0FF30D9E7EAB23C
:103F70004E4B1B68597D4D4B5B6818783346FDF7F7
:103F800069FB10B14FF0FF30CBE70020C9E7F8B56F
:103F900004460D46164616B94FF0FF30F8BD4348AB
:103FA000807A10B94FF0FF30F8E720128DF800004A
:103FB000E0B28DF801009DF8010028443B494968B2
:103FC0004989884202DD4FF0FF30E7E7374A12683F
:103FD000117E364A526810786B460222FDF73AFB92
:103FE00010B14FF0FF30D9E7EAB2304B1B68597D72
:103FF0002E4B5B6818783346FDF78EFB10B14FF0FF
:10400000FF30CBE70020C9E72DE9F04385B0054636
:104010000E4690469946254890F8250020B14FF06D
:10402000FF3005B0BDE8F08316B94FF0FF30F8E778
:10403000002423E0281B102801DD102000E0281BAD
:1040400087B2321939462046FFF764FF10B14FF0AE
:10405000FF30E6E701AA39462046FFF798FF10B186
:104060004FF0FF30DDE730193A4601A902F0F0F9D0
:1040700010B16FF00100D4E7E01984B2AC42D9DB93
:104080004FEA28208DF8000008F0FF008DF80100AD
:10409000064A1268917E054A526810786B460222E1
:1040A000FDF7D8FA38B103E0D8A1000824010020B8
:1040B0004FF0FF30B5E701218A4880F82510A0F8BD
:1040C00026900020ADE70146864890F8240008704D
:1040D0000020704702464FF0FF30704701464FF016
:1040E000FF307047F8B505460F461446002C70D0D7
:1040F000B5F5FF5F01DDFF2605E0202D01DA012681
:1041000001E0C5F3471607B90127282C02DD4FF05F
:10411000FF30F8BD7348407D28BB724890F82400FA
:1041200038B10020FFF726FE01216E4880F82010EC
:1041300003E000216B4880F820106A481630FFF732
:1041400054F868481830FFF770F866481A30FFF7DF
:1041500090F864481C30FFF7B1F86248817A8177A3
:104160001F30FFF705F90020FEF776F90020FEF773
:104170008BFC00208DF800005A4A12689178594A49
:10418000526810786B460122FDF764FA10B14FF0C7
:10419000FF30BEE740208DF80000524A1268D17B04
:1041A000504A526810786B460122FDF753FA00B16D
:1041B00065E08DF800608DF801704A4A1268117A46
:1041C000484A526810786B460222FDF743FA08B15C
:1041D00055E047E00520FCF72FF94248407A0721D7
:1041E00001EBC000C0B28DF800003E4A1268D179E0
:1041F0003C4A526810786B460122FDF72BFA00B159
:104200003DE020208DF80000012C03D100208DF826
:1042100001000EE0052C03DC01208DF8010008E010
:10422000142C03DC02208DF8010002E003208DF83D
:1042300001009DF80100072101EB8010C0B28DF84C
:104240000100284A1268917C264A526810786B4611
:104250000222FDF7FFF900B111E00121214841756B
:10426000002056E71F4A1632002103E0505C00B1DF
:1042700005E0491C0C29F9D34FF0FF3049E7FF2036
:1042800018490872FF2117484172C1724FF6FF7139
:10429000C181FF2181720174012101730146887F70
:1042A000FEF797F90F49C88AFEF7E9FC0D49087E29
:1042B000FEF7A3FC0B49488BFEF7A7FB0949888B47
:1042C000FEF74FFC0749C87FFEF76AFB054890F8E8
:1042D000200010B10120FFF74DFD0021014841757C
:1042E000002016E72401002010B5C8234FF4806297
:1042F000F74940F6F630FFF787FE10BD10B586B0DF
:104300000446F4A000680390F3A000680290F3A0B4
:1043100000680190F2A00068009004F0030003A977
:10432000085C8DF8140003A8C4F3C101405C8DF84B
:10433000150003A8C4F38111405C8DF8160004F049
:10434000030002A9085C8DF8100002A8C4F3C101A3
:10435000405C8DF8110002A8C4F38111405C8DF817
:10436000120005AA032140F22640FFF7D3FD18B141
:104370004FF0FF3006B010BD04AA032140F22A40DE
:10438000FFF7C8FD10B14FF0FF30F3E7019805903B
:104390000098049004F0040058B19DF8140040F017
:1043A00001008DF814009DF8100040F001008DF818
:1043B000100004F0200058B19DF8150040F00100F5
:1043C0008DF815009DF8110040F001008DF81100E6
:1043D00004F4807058B19DF8160040F001008DF88B
:1043E00016009DF8120040F001008DF8120005AA99
:1043F00003214FF48860FFF78DFD10B14FF0FF30BF
:10440000B8E704AA032140F23140FFF783FD10B161
:104410004FF0FF30AEE7B34804810020AAE71FB594
:104420000446B048007A00F0030054F820000190E0
:10443000AC48007A00F0040010B1019840420190AD
:10444000A848007AC0F3C10054F820000290A548A3
:10445000007A00F0200010B1029840420290A1487A
:10446000007AC0F3811054F8200003909D48008921
:1044700000F4807010B10398404203909A4901986B
:1044800080FB0101800F40EA81000190964902986B
:1044900080FB0110820042EA9170029092490398D9
:1044A00080FB0110820042EA917003900198000E97
:1044B0008DF800000198000C8DF801000198000AA9
:1044C0008DF802000198C0B28DF803006A460421FD
:1044D0004FF47470FFF71EFD18B14FF0FF3004B0B9
:1044E00010BD0298000E8DF800000298000C8DF8A7
:1044F00001000298000A8DF802000298C0B28DF8FF
:1045000003006A4604214FF47570FFF703FD10B1F4
:104510004FF0FF30E3E70398000E8DF8000003989A
:10452000000C8DF801000398000A8DF80200039832
:10453000C0B28DF803006A4604214FF47670FFF78D
:10454000E9FCCCE770B588B0064601A8FEF7E9FEA5
:10455000BDF804000021C90341EA5045C403614885
:10456000007A00F0030056F8200005905D48007ABC
:1045700000F0040010B10598404205905948007AB7
:10458000C0F3C10056F8200006905648007A00F0AB
:10459000200010B10698404206905248007AC0F3BD
:1045A000811056F8200007904E48008900F4807072
:1045B00010B10798404207900598C117A0FB04234B
:1045C00001FB043100FB0510810041EA9270059067
:1045D0000698C117A0FB042301FB043100FB051062
:1045E000810041EA927006900798C117A0FB04234E
:1045F00001FB043100FB0510810041EA9270079035
:104600000598000E8DF808000598000C8DF809003B
:104610000598000A8DF80A000598C0B28DF80B00C5
:104620000698000E8DF80C000698000C8DF80D0011
:104630000698000A8DF80E000698C0B28DF80F009B
:104640000798000E8DF810000798000C8DF81100E7
:104650000798000A8DF812000798C0B28DF8130071
:1046600002AA0C214FF42570FFF754FC08B070BD6E
:1046700030B585B004461DA207CA02AB07C3C82CDB
:1046800003DD4FF0FF3005B030BDC82090FBF4F0E3
:10469000401E85B2280A8DF80000E8B28DF80100AE
:1046A0006A46022140F21620FFF734FC10B14FF0A9
:1046B000FF30E8E702AA0C2140F6C120FFF72AFCF0
:1046C00010B14FF0FF30DEE7064884810020DAE7C2
:1046D00000A200084CCD6C000CC92C0036567600A8
:1046E000264666001806002009E3CA02FEF2ABC4A3
:1046F000AAF1DFDFBBAFDFDF0146FC48808908801D
:10470000002070472DE9FC4706460F4606F00700DB
:1047100010B1B7F5C86F03DD4FF0FF30BDE8FC877F
:10472000384604F0D3FD8146F14904F085FC80460B
:104730006846FEF77AFD9DF80000022806D004289E
:1047400016D0082826D0102848D135E04FF08D41EA
:10475000404604F003FE814604F080FD84B2E54942
:10476000404604F0FBFD814604F078FD85B238E058
:104770004FF08C41404604F0F1FD814604F06EFD9F
:1047800084B2DD49404604F0E9FD814604F066FD4F
:1047900085B226E04FF08B41404604F0DFFD8146B4
:1047A00004F05CFD84B2D549404604F0D7FD814653
:1047B00004F054FD85B214E04FF08A41404604F005
:1047C000CDFD814604F04AFD84B2CD49404604F057
:1047D000C5FD814604F042FD85B202E04FF0FF3096
:1047E0009CE700BF20128DF80400E0B28DF80500B0
:1047F00028128DF80600E8B28DF8070006F00100D7
:10480000A0B101AA02214FF4EA70FFF783FB10B1B7
:104810004FF0FF3082E70DF1060202214FF4927053
:10482000FFF778FB10B14FF0FF3077E706F002009A
:10483000A0B101AA02214FF4EC70FFF76BFB10B19D
:104840004FF0FF306AE70DF1060202214FF4947039
:10485000FFF760FB10B14FF0FF305FE706F0040098
:10486000A0B101AA02214FF4EE70FFF753FB10B183
:104870004FF0FF3052E70DF1060202214FF496701F
:10488000FFF748FB10B14FF0FF3047E7002045E746
:1048900038B504460020009004F0010020B19DF8D6
:1048A000000040F03000009004F0020020B19DF8BC
:1048B000000040F00C00009004F0040020B19DF8CE
:1048C000000040F0030000906A4601214FF4A470FC
:1048D000FFF720FB38BD38B50446012C01DA01246E
:1048E00002E0042C00DD0424601EC0B200906A4681
:1048F000012140F24F10FFF70DFB38BD38B50446DB
:10490000052094FBF0F085B228128DF80000E8B283
:104910008DF801006A4602214FF4EF70FFF7FAFAB2
:1049200038BD38B50446052094FBF0F085B2281256
:104930008DF80000E8B28DF801006A4602214FF4BC
:10494000ED70FFF7E7FA38BDF8B505460E464FF4AF
:104950007A7095FBF0F000FB06F4200E8DF8000055
:10496000200C8DF80100200A8DF80200E0B28DF8CD
:1049700003006A4604214FF4AE70FFF7CBFAF8BD8E
:1049800038B50446052094FBF0F084B220128DF86F
:104990000000E0B28DF801006A4602214FF4AD70CC
:1049A000FFF7B8FA38BD38B50446052094FBF0F09F
:1049B00084B220128DF80000E0B28DF801006A4642
:1049C00002214FF4AC70FFF7A5FA38BD38B50446A4
:1049D00014B94FF0FF3038BD6A4604214FF45870C7
:1049E000FFF7D5FA10B14FF0FF30F4E79DF8000063
:1049F00000069DF8011040EA01409DF8021040EACF
:104A000001209DF80310084320600020E3E738B53B
:104A10000446200E8DF80000200C8DF80100200ABD
:104A20008DF80200E0B28DF803006A4604214FF4CD
:104A30005870FFF76FFA38BD38B5044614B94FF017
:104A4000FF3038BD6A4604214FF47170FFF79FFABA
:104A500010B14FF0FF30F4E79DF8000000069DF81C
:104A6000011040EA01409DF8021040EA01209DF843
:104A70000310084300EB8000800020600020E0E786
:104A800038B504461420B4FBF0F4200E8DF8000075
:104A9000200C8DF80100200A8DF80200E0B28DF89C
:104AA00003006A4604214FF47170FFF733FA38BDF2
:104AB00038B5044664B120208DF8000028208DF818
:104AC000010030208DF8020038208DF8030004E04A
:104AD000A3220421684601F0E7FC6A46042140F65F
:104AE0009E20FFF717FAFDF77DFE38BD180600205F
:104AF00000004843000040460000C045000040451B
:104B00000000C04438B5044664B1C0208DF80000F0
:104B1000C2208DF80100C4208DF80200C6208DF857
:104B2000030004E08B220421684601F0BDFC6A46C4
:104B3000042140F69820FFF7EDF9FDF753FE38BD4C
:104B40003EB504466CB1FDA1D1E900208968CDE9EC
:104B5000002002916A4609214FF49760FFF7DAF9C5
:104B60003EBDF9A2D2E900109268CDE901020091A0
:104B70006A4609214FF49760FFF7CCF9F0E73EB59C
:104B8000044602208DF80000CA208DF80100E320C1
:104B90008DF8020009208DF803006A460421682080
:104BA000FFF7B8F9A3208DF8000004F0400048B1E9
:104BB000C0208DF80100C8208DF80200C2208DF8B9
:104BC000030006E0A3208DF801008DF802008DF8A7
:104BD000030004F4C07048B1C4208DF80400CC2058
:104BE0008DF80500C6208DF8060006E0A3208DF89C
:104BF00004008DF805008DF80600A3208DF807004D
:104C00008DF808008DF809006A460A2140F6A720B1
:104C1000FFF780F904F0030018B120208DF80000A0
:104C200002E0D8208DF800006A46012140F6B62047
:104C3000FFF770F904F0200018B10120FFF780FFA2
:104C400002E00020FFF77CFF04F4C07008B304F416
:104C5000807060B1B2208DF800008B208DF80100CB
:104C6000B6208DF802009B208DF803000BE0B020E9
:104C70008DF8000080208DF80100B4208DF802002E
:104C800090208DF803006A46042140F6A220FFF729
:104C900041F904F0010020B3F8208DF800006A46C5
:104CA00001214FF40B60FFF735F9FA210720FFF7D8
:104CB00029FD0720FFF7ECFD0120FFF70CFE642023
:104CC000FFF71CFE4FF4FA70FFF72BFEC821A14836
:104CD000FFF73AFE2820FFF753FE0A20FFF763FE96
:104CE00008E0D8208DF800006A4601214FF40B60DF
:104CF000FFF710F904F0020018B1D9208DF8000078
:104D000002E0D8208DF800006A46012140F23D7093
:104D1000FFF700F904F0040018B10120FFF7F2FEDC
:104D200002E00020FFF7EEFE04F0100018B10120B1
:104D3000FFF7BEFE02E00020FFF7BAFE44F00800D5
:104D400085494881FDF74EFD00208349887304F0B2
:104D5000400018B10846807B801D887304F4C07041
:104D600020B17D48807B801D7B49887304F014004E
:104D700020B17948807B10307749887304F00300B4
:104D800020B17548807B001D7349887300203EBDAB
:104D90000146714840890880002070472DE9F041A4
:104DA0000446E07800F0C006E07800F03F05607847
:104DB00000F0010098B1EF102846E91705EB51719A
:104DC000C910A5EBC101491C01F0FF086248006849
:104DD00020B16148414602683846904700BF60787C
:104DE00000F0080030B15C48406818B1B0115A4A70
:104DF000516888470020BDE8F08110B586B00446B0
:104E000056A207CA03AB07C357A207CA8DE807001B
:104E1000012C09D0022C0ED103AA0B2140F68220CE
:104E2000FFF778F806B010BD6A460B2140F68220E5
:104E3000FFF770F8F6E74FF0FF30F3E72DE9F04F9A
:104E40008DB00746884615469946DDE9166B002465
:104E5000002030804049887B5A4605A9FEF7BDFBFB
:104E600018B1601E0DB0BDE8F08F3B48807A00F0AD
:104E70001400002861D09DF8140000069DF815105C
:104E800040EA01409DF8161040EA01209DF81710F5
:104E9000084328609DF8180000069DF8191040EAA4
:104EA00001409DF81A1040EA01209DF81B100843AC
:104EB00068609DF81C0000069DF81D1040EA014046
:104EC0009DF81E1040EA01209DF81F100843A860BD
:104ED0009DF8200000069DF8211040EA01409DF851
:104EE000221040EA01209DF823100843E86004F1F5
:104EF0001000C4B228680014019068680014029081
:104F0000A86800140390E8680014049001984043D6
:104F1000029901FB0100039901FB0100049901FBC7
:104F2000010ABAF1706F02DBBAF1885F22DDFDF78A
:104F300059FC00203080401E94E721E0B8AAB38DD0
:104F4000B4980D355D000000B8AAAAAAB088C3C500
:104F5000C700000009E3CA0218060020D8B1B9F35F
:104F60008BA391B609B4D900DAB1B9F38BA391B68A
:104F7000DAB4DA00B6F9000040F48070308000BF87
:104F80003448807A00F0400020B305A9601C085C1A
:104F9000095D40EA012000B2A8F8000005A9E01C64
:104FA000095C05AAA01C105C41EA002000B2A8F828
:104FB000020005A9601D095C201D105C41EA00206B
:104FC00000B2A8F80400A01DC4B2B6F9000040F079
:104FD000080030801F48408900F4C07008B305A95C
:104FE000601C085C095D40EA012000B2388005A918
:104FF000E01C095C05AAA01C105C41EA002000B27C
:10500000788005A9601D095C201D105C41EA002024
:1050100000B2B880A01DC4B2B6F9000040F0700024
:1050200030800C48807A00F0030018B105A90819F7
:10503000FFF7B4FE4846FDF734FF002012E70146B3
:10504000044801600020704701460248416000208A
:105050007047000018060020014691F90020002A40
:1050600001DD00201EE091F90020002A01DA042071
:1050700018E091F90120002A01DD012012E091F9E8
:105080000120002A01DA05200CE091F90220002A13
:1050900001DD022006E091F90220002A01DA062053
:1050A00000E00720704770B505462846FFF7D4FF9B
:1050B0000446E81CFFF7D0FF44EAC00084B2A81DF4
:1050C000FFF7CAFF44EA801084B2204670BD70B575
:1050D00088B002A905A8FEF792FE0446072C3FD12E
:1050E00001A8FEF701F9059804F0D8F806460199E1
:1050F00004F034F9054604F095F80590069804F09C
:10510000CDF80646019904F029F9054604F08AF81D
:105110000690079804F0C2F80646019904F01EF9BB
:10512000054604F07FF8079005A8FFF778F9684670
:10513000FEF7F7F8BDF80010029848430290BDF85A
:105140000010039848430390BDF8001004984843AA
:10515000049002A8FFF7F6F9FEA001F0FDF800BFE9
:1051600008B070BD2DE9F04304460D46DDE9076740
:105170000021012041E0DFF800C43CF81080A0F1DC
:10518000010CDFF8F49329F81C8009F1160C3CF8A7
:105190001090A0F1010CDFF8E08308F1160828F860
:1051A0001C9008F1160C3CF81090A0F1010C08F1CD
:1051B000160828F81C9008F1160C3CF81090A0F185
:1051C000010C08F1160828F81C9008F1160C3CF8A0
:1051D0001090A0F1010C08F1160828F81C9008F1B5
:1051E000160C3CF81090A0F1010C08F1160828F8F4
:1051F0001C9000F1010C0CF0FF000A28BBDBDFF86B
:1052000078C3ACF81240ACF82850ACF83E20ACF8AB
:105210005430ACF86A60ACF880700021002008E0DF
:10522000DFF854C33CF910C0614400F1010C0CF0EC
:10523000FF000A28F4DB4FF00A0C91FBFCFC0FFA8C
:105240008CFCDFF83483A8F814C0002100200AE0A9
:10525000DFF824C30CF1160C3CF910C0614400F1D6
:10526000010C0CF0FF000A28F2DB4FF00A0C91FB56
:10527000FCFC0FFA8CF8DFF800C3ACF82A800021A0
:1052800000200AE0DFF8F0C20CF12C0C3CF910C051
:10529000614400F1010C0CF0FF000A28F2DB4FF032
:1052A0000A0C91FBFCFC0FFA8CF8DFF8CCC2ACF8CE
:1052B0004080002100200AE0DFF8BCC20CF1420C63
:1052C0003CF910C0614400F1010C0CF0FF000A2809
:1052D000F2DB4FF00A0C91FBFCFC0FFA8CF8DFF8C4
:1052E00098C2ACF85680002100200AE0DFF888C29E
:1052F0000CF1580C3CF910C0614400F1010C0CF0A9
:10530000FF000A28F2DB4FF00A0C91FBFCFC0FFABD
:105310008CF8DFF864C2ACF86C80002100200AE051
:10532000DFF854C20CF16E0C3CF910C0614400F17E
:10533000010C0CF0FF000A28F2DB4FF00A0C91FB85
:10534000FCFC0FFA8CF8DFF830C2ACF88280BDE8C4
:10535000F08338B50446032302226B21D020009449
:10536000FCF7AAFA38BD38B50446022304221B21F3
:10537000D0200094FCF7A0FA38BD38B504460223CB
:1053800004221C21D0200094FCF796FA38BD10B5F9
:105390000446234606226B21D020FCF7C2FA10BD3A
:1053A00010B5764B01227521D020FCF713FA734813
:1053B000007810BD10B5FFF7F3FF682801D1012078
:1053C00010BD0020FCE710B50446234605226A21E3
:1053D000D020FCF7A6FA10BD10B5044623460122E2
:1053E0003721D020FCF79DFA10BD10B50220FFF741
:1053F000B0FF0320FFF7B7FF0020FFF7BEFF00203C
:10540000FFF7C5FF0020FFF7DEFF0020FFF7E4FFF6
:1054100010BD38B5002000906B4601227521682030
:10542000FCF77AF99DF8000068280ED000BF5448B8
:10543000006800F4E06053490843001D50490860CB
:10544000BFF34F8F00BF00BFFEE7FDF75AFCE0B986
:105450007820FDF7BEF87820FDF7A2FAC820FDF706
:1054600080FBFEF741FF4848FFF71DFE0446FEF7AC
:1054700045FF40F27310FFF782FBC820FFF7F8F8F2
:10548000FFF725FE0120FEF775FC38BD2DE9F04F32
:1054900091B00EA83D490FAB0AAACDE900103C49D6
:1054A0003C48FFF7CBFC3948008800F480700028A6
:1054B0004FD00A9803F0F2FE04464FF09D4103F0EE
:1054C000BBFD354908600B9803F0E8FE04464FF039
:1054D0009D4103F0B1FD314908600C9803F0DEFEF8
:1054E00004464FF09D4103F0A7FD2D4908600D983B
:1054F00003F0D4FE04464FF09D4103F09DFD294981
:105500000860254801684FF0804003F027FF0890AD
:1055100023480168089803F021FF83461F4801686B
:105520004FF0404003F01AFF08901E4801680898A9
:1055300003F014FF5946099003F010FD824603F072
:10554000E1FC804602F08EFB06464FF06632164BB9
:105550002CE0E7E073657474696E672062696173BB
:105560002073756363657366756C6C79202E2E2EBF
:105570002E2E2E0D0A0000003606002028060020E0
:105580000CED00E00000FA05700100205C01002035
:10559000560100205001002060010020640100201D
:1055A000680100206C01002066A64C4003F0D0F991
:1055B000044602F039FF78490860784801684FF0E6
:1055C000804003F0CBFE059074480168059803F015
:1055D000C5FE8246724801684FF0404003F0BEFEAF
:1055E00005906F480168059803F0B8FE8346514660
:1055F00003F0BCFF81464FF07E5103F0AFFC044640
:1056000003F080FCCDE90601664801684FF0804058
:1056100003F0A4FE834662480168584603F09EFEEC
:1056200081465E4801684FF0804003F097FE834654
:105630005D480168584603F091FE8246494603F0F2
:105640008DFC044603F05EFC0746DDE9062302F00C
:1056500051FD05464FF06632544B03F079F9CDE920
:10566000080102F0E1FE524908604F4801680068F5
:1056700003F074FE059049480168006803F06EFE6F
:10568000039047480168006803F068FE02904548AF
:105690000168006803F062FE0190029903F05EFC6D
:1056A0008346039903F062FF0490059903F05EFFBF
:1056B000824603F027FC06460F463B4801683948FE
:1056C000006803F04BFE05903448016834480068D8
:1056D00003F044FE0490059903F040FC83464FF02C
:1056E000804103F03BFE824603F00CFC32463B4611
:1056F000CDE9060102F0FEFC80464FF066322B4BEE
:1057000003F026F900222B4BCDE9080102F0BEFE82
:10571000044602F089FE284908602848B0F90400D0
:105720002749086011B0BDE8F08F2DE9F05F4221F4
:10573000D020FCF72CF805464121D020FCF727F8B3
:1057400005EB0024204603F0A9FD82464FF08E4170
:10575000504603F0CFFE05D24FF08F41504603F084
:1057600005FF82461749504603F066FC834603F066
:10577000C9FB8046144A154B02F088FE06460022FB
:10578000134B03F0E5F8044602F04EFE8246504605
:1057900003F048FDBDE8F09F4800002068010020AC
:1057A00064010020600100206C01002066A64C40CE
:1057B0004C00002000806640500000205001002076
:1057C0006C0000200000AA43A4703D0AD743424069
:1057D000000024402DE9F04704460E461546FE49D8
:1057E000284603F0BBFD814684F000483146404620
:1057F00003F0B4FB0746494603F0B8FEF7490860DA
:10580000F549284603F0AAFD07463146204603F035
:10581000A5FB8046394603F0A9FEF1490860EE4930
:10582000284603F09BFD814684F0004831464046FF
:1058300003F094FB0746494603F090FBE9490860F2
:10584000E549284603F08AFD07463146204603F025
:1058500085FB8046394603F081FBE3490860BDE8DB
:10586000F0870146002901DA484200E00846704707
:1058700030B505460C46002D07DA0120DB490860EB
:105880000020DB49C1F8900106E00020D7490860FC
:105890000120D749C1F890012846FFF7E2FFD5491A
:1058A0000880002C08DA0120D049091D086000207A
:1058B000CF49C1F8940107E00020CC49091D0860D8
:1058C0000120CB49C1F894012046FFF7CAFFC9491E
:1058D000091D0880002A08DD0120C4491031086034
:1058E0000020C549C1F8880107E00020BF491031F8
:1058F00008600120C049C1F888011046FFF7B1FFD8
:10590000BC4908390880002B08DD0120B749143153
:1059100008600020B649C1F8B00107E00020B34993
:10592000143108600120B249C1F8B0011846FFF7F0
:1059300098FFB049091F088030BDB049096842424C
:10594000914202DA4142AD4A1160AC490968814294
:1059500001DDAA490860AA4909684242914202DA77
:105960004142A74A1160A6490968814201DDA44964
:105970000860A44909684242914202DA4142A14AC0
:105980001160A0490968814201DD9E4908609E4975
:1059900009684242914202DA41429B4A11609A49A7
:1059A0000968814201DD9849086070472DE9F05F80
:1059B00004460D46601B954908600846006803F0E0
:1059C0006DFC834692480168584603F0C7FC804648
:1059D0008E4909688F4A1268881A03F05FFC834673
:1059E0008D480168584603F0B9FC8146414603F0F2
:1059F000B5FA07468948006803F050FC82463946EC
:105A000003F0ACFA064603F00DFC84490860084632
:105A10000068B0F5E15F02DD4FF4E15008607F48B7
:105A2000006810F5E15F02DA7D487C49086077483C
:105A300000687849086079480068BDE8F09F2DE962
:105A4000F05F04460D46601B764908600846006812
:105A500003F024FC83466E480168584603F07EFC40
:105A6000804670490968704A1268881A03F016FC6B
:105A7000834669480168584603F070FC81464146F8
:105A800003F06CFA07466948006803F007FC824699
:105A9000394603F063FA064603F0C4FB6349086025
:105AA00008460068B0F5E15F02DD4FF4E1500860A0
:105AB0005E48006810F5E15F02DA59485B4908600A
:105AC000584800685849086058480068BDE8F09F89
:105AD0002DE9F05F04460D46601B554908600846F5
